{
  "contractName": "computerShop",
  "abi": [
    {
      "constant": true,
      "inputs": [],
      "name": "owner",
      "outputs": [
        {
          "name": "",
          "type": "address"
        }
      ],
      "payable": false,
      "stateMutability": "view",
      "type": "function",
      "signature": "0x8da5cb5b"
    },
    {
      "constant": true,
      "inputs": [
        {
          "name": "",
          "type": "bytes32"
        }
      ],
      "name": "computers",
      "outputs": [
        {
          "name": "",
          "type": "uint256"
        }
      ],
      "payable": false,
      "stateMutability": "view",
      "type": "function",
      "signature": "0x9edf9662"
    },
    {
      "inputs": [],
      "payable": false,
      "stateMutability": "nonpayable",
      "type": "constructor",
      "signature": "constructor"
    },
    {
      "constant": true,
      "inputs": [
        {
          "name": "_name",
          "type": "bytes32"
        },
        {
          "name": "number",
          "type": "uint256"
        }
      ],
      "name": "get_price_by_name",
      "outputs": [
        {
          "name": "",
          "type": "uint256"
        }
      ],
      "payable": false,
      "stateMutability": "view",
      "type": "function",
      "signature": "0xde93b008"
    },
    {
      "constant": false,
      "inputs": [
        {
          "name": "money",
          "type": "uint256"
        }
      ],
      "name": "ordering",
      "outputs": [],
      "payable": true,
      "stateMutability": "payable",
      "type": "function",
      "signature": "0x853db03e"
    },
    {
      "constant": false,
      "inputs": [],
      "name": "sending",
      "outputs": [],
      "payable": false,
      "stateMutability": "nonpayable",
      "type": "function",
      "signature": "0x08e6eabc"
    },
    {
      "constant": false,
      "inputs": [],
      "name": "comfirm",
      "outputs": [],
      "payable": false,
      "stateMutability": "nonpayable",
      "type": "function",
      "signature": "0xdfe723a3"
    },
    {
      "constant": false,
      "inputs": [],
      "name": "withdraw",
      "outputs": [],
      "payable": true,
      "stateMutability": "payable",
      "type": "function",
      "signature": "0x3ccfd60b"
    },
    {
      "constant": true,
      "inputs": [],
      "name": "check_balances",
      "outputs": [
        {
          "name": "",
          "type": "uint256"
        }
      ],
      "payable": false,
      "stateMutability": "view",
      "type": "function",
      "signature": "0xb288947a"
    },
    {
      "constant": true,
      "inputs": [],
      "name": "get_status",
      "outputs": [
        {
          "name": "",
          "type": "uint256"
        }
      ],
      "payable": false,
      "stateMutability": "view",
      "type": "function",
      "signature": "0x39aaba25"
    },
    {
      "constant": true,
      "inputs": [],
      "name": "getBalance",
      "outputs": [
        {
          "name": "",
          "type": "uint256"
        }
      ],
      "payable": false,
      "stateMutability": "view",
      "type": "function",
      "signature": "0x12065fe0"
    },
    {
      "constant": false,
      "inputs": [
        {
          "name": "addr",
          "type": "address"
        }
      ],
      "name": "sellerInit",
      "outputs": [],
      "payable": false,
      "stateMutability": "nonpayable",
      "type": "function",
      "signature": "0x0c500b66"
    }
  ],
  "bytecode": "0x608060405234801561001057600080fd5b506101f4600160007f6950686f6e65000000000000000000000000000000000000000000000000000081526020019081526020016000208190555061015e600160007f53756d73756e6700000000000000000000000000000000000000000000000000815260200190815260200160002081905550610186600160007f48554157454900000000000000000000000000000000000000000000000000008152602001908152602001600020819055506000600260006101000a81548160ff021916908360028111156100de57fe5b0217905550610c48806100f26000396000f3fe6080604052600436106100af576000357c0100000000000000000000000000000000000000000000000000000000900463ffffffff16806308e6eabc146100b45780630c500b66146100cb57806312065fe01461011c57806339aaba25146101475780633ccfd60b14610172578063853db03e1461017c5780638da5cb5b146101aa5780639edf966214610201578063b288947a14610250578063de93b0081461027b578063dfe723a3146102d4575b600080fd5b3480156100c057600080fd5b506100c96102eb565b005b3480156100d757600080fd5b5061011a600480360360208110156100ee57600080fd5b81019080803573ffffffffffffffffffffffffffffffffffffffff169060200190929190505050610471565b005b34801561012857600080fd5b506101316104b4565b6040518082815260200191505060405180910390f35b34801561015357600080fd5b5061015c6104d3565b6040518082815260200191505060405180910390f35b61017a61057c565b005b6101a86004803603602081101561019257600080fd5b810190808035906020019092919050505061073d565b005b3480156101b657600080fd5b506101bf610955565b604051808273ffffffffffffffffffffffffffffffffffffffff1673ffffffffffffffffffffffffffffffffffffffff16815260200191505060405180910390f35b34801561020d57600080fd5b5061023a6004803603602081101561022457600080fd5b810190808035906020019092919050505061097a565b6040518082815260200191505060405180910390f35b34801561025c57600080fd5b50610265610992565b6040518082815260200191505060405180910390f35b34801561028757600080fd5b506102be6004803603604081101561029e57600080fd5b810190808035906020019092919080359060200190929190505050610a75565b6040518082815260200191505060405180910390f35b3480156102e057600080fd5b506102e9610a95565b005b600160028111156102f857fe5b600260009054906101000a900460ff16600281111561031357fe5b141515610388576040517f08c379a000000000000000000000000000000000000000000000000000000000815260040180806020018281038252600c8152602001807f4e4f54204f52444552494e47000000000000000000000000000000000000000081525060200191505060405180910390fd5b3373ffffffffffffffffffffffffffffffffffffffff166000809054906101000a900473ffffffffffffffffffffffffffffffffffffffff1673ffffffffffffffffffffffffffffffffffffffff1614151561044c576040517f08c379a000000000000000000000000000000000000000000000000000000000815260040180806020018281038252600a8152602001807f4e4f542053454c4c45520000000000000000000000000000000000000000000081525060200191505060405180910390fd5b60028060006101000a81548160ff0219169083600281111561046a57fe5b0217905550565b806000806101000a81548173ffffffffffffffffffffffffffffffffffffffff021916908373ffffffffffffffffffffffffffffffffffffffff16021790555050565b60003373ffffffffffffffffffffffffffffffffffffffff1631905090565b60008060028111156104e157fe5b600260009054906101000a900460ff1660028111156104fc57fe5b141561050b5760019050610579565b6001600281111561051857fe5b600260009054906101000a900460ff16600281111561053357fe5b14156105425760029050610579565b60028081111561054e57fe5b600260009054906101000a900460ff16600281111561056957fe5b14156105785760039050610579565b5b90565b6000809054906101000a900473ffffffffffffffffffffffffffffffffffffffff1673ffffffffffffffffffffffffffffffffffffffff163373ffffffffffffffffffffffffffffffffffffffff16141515610640576040517f08c379a000000000000000000000000000000000000000000000000000000000815260040180806020018281038252600a8152602001807f4e4f542053454c4c45520000000000000000000000000000000000000000000081525060200191505060405180910390fd5b6000600281111561064d57fe5b600260009054906101000a900460ff16600281111561066857fe5b1415156106dd576040517f08c379a000000000000000000000000000000000000000000000000000000000815260040180806020018281038252600b8152602001807f4e4f54204e4f5448494e4700000000000000000000000000000000000000000081525060200191505060405180910390fd5b3373ffffffffffffffffffffffffffffffffffffffff166108fc3073ffffffffffffffffffffffffffffffffffffffff16319081150290604051600060405180830381858888f1935050505015801561073a573d6000803e3d6000fd5b50565b6000600281111561074a57fe5b600260009054906101000a900460ff16600281111561076557fe5b1415156107da576040517f08c379a000000000000000000000000000000000000000000000000000000000815260040180806020018281038252600b8152602001807f4e4f54204e4f5448494e4700000000000000000000000000000000000000000081525060200191505060405180910390fd5b6000809054906101000a900473ffffffffffffffffffffffffffffffffffffffff1673ffffffffffffffffffffffffffffffffffffffff163373ffffffffffffffffffffffffffffffffffffffff161415151561089f576040517f08c379a00000000000000000000000000000000000000000000000000000000081526004018080602001828103825260098152602001807f4e4f54204255594552000000000000000000000000000000000000000000000081525060200191505060405180910390fd5b803373ffffffffffffffffffffffffffffffffffffffff16311015151561092e576040517f08c379a00000000000000000000000000000000000000000000000000000000081526004018080602001828103825260108152602001807f4e4f5420454e4f554748204d4f4e45590000000000000000000000000000000081525060200191505060405180910390fd5b6001600260006101000a81548160ff0219169083600281111561094d57fe5b021790555050565b6000809054906101000a900473ffffffffffffffffffffffffffffffffffffffff1681565b60016020528060005260406000206000915090505481565b60003373ffffffffffffffffffffffffffffffffffffffff166000809054906101000a900473ffffffffffffffffffffffffffffffffffffffff1673ffffffffffffffffffffffffffffffffffffffff16141515610a58576040517f08c379a00000000000000000000000000000000000000000000000000000000081526004018080602001828103825260098152602001807f4e4f54204f574e4552000000000000000000000000000000000000000000000081525060200191505060405180910390fd5b3073ffffffffffffffffffffffffffffffffffffffff1631905090565b600081600160008581526020019081526020016000205402905092915050565b600280811115610aa157fe5b600260009054906101000a900460ff166002811115610abc57fe5b141515610b31576040517f08c379a000000000000000000000000000000000000000000000000000000000815260040180806020018281038252600b8152602001807f4e4f542053454e44494e4700000000000000000000000000000000000000000081525060200191505060405180910390fd5b6000809054906101000a900473ffffffffffffffffffffffffffffffffffffffff1673ffffffffffffffffffffffffffffffffffffffff163373ffffffffffffffffffffffffffffffffffffffff1614151515610bf6576040517f08c379a00000000000000000000000000000000000000000000000000000000081526004018080602001828103825260098152602001807f4e4f54204255594552000000000000000000000000000000000000000000000081525060200191505060405180910390fd5b6000600260006101000a81548160ff02191690836002811115610c1557fe5b021790555056fea165627a7a72305820827b26f91c13aabacc41613bf70b8d823138dfc75a1416e63548db7ea20d707e0029",
  "source": "pragma solidity ^0.5.0;\r\n\r\ncontract computerShop {\r\n\r\n    // Use to finish the transaction.\r\n    enum States { NOTHING, ORDERING, SENDING }\r\n    // The shop's keeper.\r\n    address public owner;\r\n\r\n    // The computers.\r\n    mapping(bytes32 => uint) public computers;\r\n\r\n    // State\r\n    States purchase_state;\r\n    // Constructor, open a new computer shop.\r\n    constructor() public {\r\n        // Initialize the computers.\r\n        computers[\"iPhone\"] = 500;\r\n        computers[\"Sumsung\"] = 350;\r\n        computers[\"HUAWEI\"] = 390;\r\n\r\n        purchase_state = States.NOTHING;\r\n    }\r\n\r\n    // Get specific computer's price.\r\n    function get_price_by_name(bytes32 _name, uint number) public view returns (uint) {\r\n        return computers[_name] * number;\r\n    }\r\n\r\n    // Buyers order a computer.\r\n    function ordering(uint money) public payable {\r\n        require (purchase_state == States.NOTHING, \"NOT NOTHING\");\r\n        require (msg.sender != owner, \"NOT BUYER\");\r\n        require (msg.sender.balance >= money, \"NOT ENOUGH MONEY\");\r\n\r\n        purchase_state = States.ORDERING;\r\n    }\r\n\r\n    // Owner send the computer.\r\n    function sending() public {\r\n        require (purchase_state == States.ORDERING, \"NOT ORDERING\");\r\n        require (owner == msg.sender, \"NOT SELLER\");\r\n\r\n        purchase_state = States.SENDING;\r\n    }\r\n\r\n    // Buyers comfirm.\r\n    function comfirm() public {\r\n        require (purchase_state == States.SENDING, \"NOT SENDING\");\r\n        require (msg.sender != owner, \"NOT BUYER\");\r\n        \r\n        purchase_state = States.NOTHING;\r\n    }\r\n\r\n    function withdraw() public payable {\r\n        require (msg.sender == owner, \"NOT SELLER\");\r\n        require (purchase_state == States.NOTHING, \"NOT NOTHING\");\r\n        msg.sender.transfer(address(this).balance);\r\n    }\r\n\r\n    function check_balances() public view returns (uint) {\r\n        require (owner == msg.sender, \"NOT OWNER\");\r\n        return address(this).balance;\r\n    }\r\n\r\n    function get_status() public view returns (uint) {\r\n        if (purchase_state == States.NOTHING) return 1;\r\n        if (purchase_state == States.ORDERING) return 2;\r\n        if (purchase_state == States.SENDING) return 3;\r\n    }\r\n\r\n    function getBalance() public view returns(uint) {\r\n        return msg.sender.balance;\r\n    }\r\n    \r\n    function sellerInit(address addr) public {\r\n        owner = addr;\r\n    }\r\n}\r\n",
  "sourcePath": "/Users/liangjunhua/Desktop/DApp/contracts/computerShop.sol",
  "compiler": {
    "name": "solc",
    "version": "0.5.0+commit.1d4f565a.Emscripten.clang"
  },
  "schemaVersion": "3.0.0",
  "updatedAt": "2018-12-27T15:20:58.642Z",
  "devdoc": {
    "methods": {}
  },
  "userdoc": {
    "methods": {}
  }
}